{
  "contractName": "Messages",
  "abi": [
    {
      "constant": true,
      "inputs": [
        {
          "name": "",
          "type": "uint256"
        }
      ],
      "name": "messages",
      "outputs": [
        {
          "name": "id",
          "type": "uint256"
        },
        {
          "name": "author",
          "type": "string"
        },
        {
          "name": "content",
          "type": "string"
        }
      ],
      "payable": false,
      "stateMutability": "view",
      "type": "function",
      "signature": "0x0d80fefd"
    },
    {
      "constant": true,
      "inputs": [
        {
          "name": "",
          "type": "uint256"
        }
      ],
      "name": "participants",
      "outputs": [
        {
          "name": "id",
          "type": "uint256"
        },
        {
          "name": "author",
          "type": "string"
        }
      ],
      "payable": false,
      "stateMutability": "view",
      "type": "function",
      "signature": "0x35c1d349"
    },
    {
      "constant": true,
      "inputs": [],
      "name": "participantCount",
      "outputs": [
        {
          "name": "",
          "type": "uint256"
        }
      ],
      "payable": false,
      "stateMutability": "view",
      "type": "function",
      "signature": "0x362f04c0"
    },
    {
      "constant": true,
      "inputs": [],
      "name": "messageCount",
      "outputs": [
        {
          "name": "",
          "type": "uint256"
        }
      ],
      "payable": false,
      "stateMutability": "view",
      "type": "function",
      "signature": "0x3dbcc8d1"
    },
    {
      "constant": false,
      "inputs": [
        {
          "name": "_author",
          "type": "string"
        }
      ],
      "name": "addParticipant",
      "outputs": [],
      "payable": false,
      "stateMutability": "nonpayable",
      "type": "function",
      "signature": "0x364de8b6"
    },
    {
      "constant": false,
      "inputs": [
        {
          "name": "_content",
          "type": "string"
        },
        {
          "name": "_author",
          "type": "string"
        }
      ],
      "name": "addMessage",
      "outputs": [],
      "payable": false,
      "stateMutability": "nonpayable",
      "type": "function",
      "signature": "0x631e0c69"
    }
  ],
  "bytecode": "0x608060405260008055600060015534801561001957600080fd5b506107cc806100296000396000f3fe6080604052600436106100775763ffffffff7c01000000000000000000000000000000000000000000000000000000006000350416630d80fefd811461007c57806335c1d3491461018b578063362f04c014610234578063364de8b61461025b5780633dbcc8d114610310578063631e0c6914610325575b600080fd5b34801561008857600080fd5b506100a66004803603602081101561009f57600080fd5b503561045f565b604051808481526020018060200180602001838103835285818151815260200191508051906020019080838360005b838110156100ed5781810151838201526020016100d5565b50505050905090810190601f16801561011a5780820380516001836020036101000a031916815260200191505b50838103825284518152845160209182019186019080838360005b8381101561014d578181015183820152602001610135565b50505050905090810190601f16801561017a5780820380516001836020036101000a031916815260200191505b509550505050505060405180910390f35b34801561019757600080fd5b506101b5600480360360208110156101ae57600080fd5b5035610598565b6040518083815260200180602001828103825283818151815260200191508051906020019080838360005b838110156101f85781810151838201526020016101e0565b50505050905090810190601f1680156102255780820380516001836020036101000a031916815260200191505b50935050505060405180910390f35b34801561024057600080fd5b5061024961063d565b60408051918252519081900360200190f35b34801561026757600080fd5b5061030e6004803603602081101561027e57600080fd5b81019060208101813564010000000081111561029957600080fd5b8201836020820111156102ab57600080fd5b803590602001918460018302840111640100000000831117156102cd57600080fd5b91908080601f016020809104026020016040519081016040528093929190818152602001838380828437600092019190915250929550610643945050505050565b005b34801561031c57600080fd5b5061024961068e565b34801561033157600080fd5b5061030e6004803603604081101561034857600080fd5b81019060208101813564010000000081111561036357600080fd5b82018360208201111561037557600080fd5b8035906020019184600183028401116401000000008311171561039757600080fd5b91908080601f01602080910402602001604051908101604052809392919081815260200183838082843760009201919091525092959493602081019350359150506401000000008111156103ea57600080fd5b8201836020820111156103fc57600080fd5b8035906020019184600183028401116401000000008311171561041e57600080fd5b91908080601f016020809104026020016040519081016040528093929190818152602001838380828437600092019190915250929550610694945050505050565b6003602090815260009182526040918290208054600180830180548651600293821615610100026000190190911692909204601f8101869004860283018601909652858252919492939092908301828280156104fc5780601f106104d1576101008083540402835291602001916104fc565b820191906000526020600020905b8154815290600101906020018083116104df57829003601f168201915b50505060028085018054604080516020601f600019610100600187161502019094169590950492830185900485028101850190915281815295969594509092509083018282801561058e5780601f106105635761010080835404028352916020019161058e565b820191906000526020600020905b81548152906001019060200180831161057157829003601f168201915b5050505050905083565b60026020818152600092835260409283902080546001808301805487519281161561010002600019011695909504601f81018590048502820185019096528581529094919390929091908301828280156106335780601f1061060857610100808354040283529160200191610633565b820191906000526020600020905b81548152906001019060200180831161061657829003601f168201915b5050505050905082565b60015481565b60018054810180825560408051808201825282815260208082018681526000948552600282529290932081518155915180519194929361068893850192910190610705565b50505050565b60005481565b6000805460019081018083556040805160608101825282815260208082018781528284018990529386526003815291909420845181559151805192936106e293908501929190910190610705565b50604082015180516106fe916002840191602090910190610705565b5050505050565b828054600181600116156101000203166002900490600052602060002090601f016020900481019282601f1061074657805160ff1916838001178555610773565b82800160010185558215610773579182015b82811115610773578251825591602001919060010190610758565b5061077f929150610783565b5090565b61079d91905b8082111561077f5760008155600101610789565b9056fea165627a7a72305820d61db17b279d4663814ea3effaaaa69d740e894e108fd8a4bd86ea1c87bd52ed0029",
  "source": "pragma solidity ^0.5.0;\r\n\r\ncontract Messages{\r\n\tuint256 public messageCount=0;\r\n\tuint256 public participantCount=0;\r\n\tstruct Mess{\r\n\t\tuint id;\r\n\t\tstring author;\r\n\t\tstring content;\r\n\r\n\t}\r\n\r\n\tstruct Participant\r\n\t{\r\n\t\tuint id;\r\n\t\tstring author;\r\n\t}\r\n\r\n\tmapping(uint256 => Participant) public participants;\r\n\r\n\r\n\tmapping(uint256 => Mess) public messages;\r\n\r\n\tfunction addParticipant(string memory _author) public\r\n\t{\r\n\tparticipantCount++;\r\n\tparticipants[participantCount]= Participant(participantCount,_author);\r\n\t}\r\n\r\n\tfunction addMessage(string memory _content,string memory _author) public {\r\n\tmessageCount++;\r\n\tmessages[messageCount] = Mess(messageCount, _author, _content);\r\n\r\n\r\n\r\n\t}\r\n}",
  "sourcePath": "D:/hw/DS/MessagingApp-BlockChain/contracts/MessageApp.sol",
  "compiler": {
    "name": "solc",
    "version": "0.5.0+commit.1d4f565a.Emscripten.clang"
  },
  "schemaVersion": "3.0.1",
  "updatedAt": "2020-03-31T04:05:41.472Z",
  "devdoc": {
    "methods": {}
  },
  "userdoc": {
    "methods": {}
  }
}