{
  "contractName": "Messages",
  "abi": [
    {
      "constant": true,
      "inputs": [
        {
          "name": "",
          "type": "uint256"
        }
      ],
      "name": "messages",
      "outputs": [
        {
          "name": "id",
          "type": "uint256"
        },
        {
          "name": "author",
          "type": "string"
        },
        {
          "name": "content",
          "type": "string"
        },
        {
          "name": "timestamp",
          "type": "uint256"
        }
      ],
      "payable": false,
      "stateMutability": "view",
      "type": "function",
      "signature": "0x0d80fefd"
    },
    {
      "constant": true,
      "inputs": [],
      "name": "messageCount",
      "outputs": [
        {
          "name": "",
          "type": "uint256"
        }
      ],
      "payable": false,
      "stateMutability": "view",
      "type": "function",
      "signature": "0x3dbcc8d1"
    },
    {
      "constant": false,
      "inputs": [
        {
          "name": "_content",
          "type": "string"
        }
      ],
      "name": "addMessage",
      "outputs": [],
      "payable": false,
      "stateMutability": "nonpayable",
      "type": "function",
      "signature": "0x6a226a49"
    }
  ],
  "bytecode": "0x60806040526000805534801561001457600080fd5b50610509806100246000396000f3fe6080604052600436106100565763ffffffff7c01000000000000000000000000000000000000000000000000000000006000350416630d80fefd811461005b5780633dbcc8d1146101715780636a226a4914610198575b600080fd5b34801561006757600080fd5b506100856004803603602081101561007e57600080fd5b503561024d565b604051808581526020018060200180602001848152602001838103835286818151815260200191508051906020019080838360005b838110156100d25781810151838201526020016100ba565b50505050905090810190601f1680156100ff5780820380516001836020036101000a031916815260200191505b50838103825285518152855160209182019187019080838360005b8381101561013257818101518382015260200161011a565b50505050905090810190601f16801561015f5780820380516001836020036101000a031916815260200191505b50965050505050505060405180910390f35b34801561017d57600080fd5b5061018661038b565b60408051918252519081900360200190f35b3480156101a457600080fd5b5061024b600480360360208110156101bb57600080fd5b8101906020810181356401000000008111156101d657600080fd5b8201836020820111156101e857600080fd5b8035906020019184600183028401116401000000008311171561020a57600080fd5b91908080601f016020809104026020016040519081016040528093929190818152602001838380828437600092019190915250929550610391945050505050565b005b600160208181526000928352604092839020805481840180548651600296821615610100026000190190911695909504601f810185900485028601850190965285855290949193929091908301828280156102e95780601f106102be576101008083540402835291602001916102e9565b820191906000526020600020905b8154815290600101906020018083116102cc57829003601f168201915b50505060028085018054604080516020601f600019610100600187161502019094169590950492830185900485028101850190915281815295969594509092509083018282801561037b5780601f106103505761010080835404028352916020019161037b565b820191906000526020600020905b81548152906001019060200180831161035e57829003601f168201915b5050505050908060030154905084565b60005481565b6000805460019081018083556040805160808101825282815281518083018352600681527f4e696b68696c000000000000000000000000000000000000000000000000000060208281019190915280830191825282840188905242606084015293865284845291909420845181559051805191936104159390850192910190610442565b5060408201518051610431916002840191602090910190610442565b506060820151816003015590505050565b828054600181600116156101000203166002900490600052602060002090601f016020900481019282601f1061048357805160ff19168380011785556104b0565b828001600101855582156104b0579182015b828111156104b0578251825591602001919060010190610495565b506104bc9291506104c0565b5090565b6104da91905b808211156104bc57600081556001016104c6565b9056fea165627a7a7230582017ce858f14f505f2bd2980e3e8a33a1a39a12679bfe44cf8063b2c963d42bc440029",
  "source": "pragma solidity ^0.5.0;\r\n\r\ncontract Messages{\r\n\tuint256 public messageCount=0;\r\n\r\n\tstruct Mess{\r\n\t\tuint id;\r\n\t\tstring author;\r\n\t\tstring content;\r\n\t\tuint256 timestamp;\r\n\r\n\t}\r\n\r\n\r\n\tmapping(uint256 => Mess) public messages;\r\n\r\n\tfunction addMessage(string memory _content) public {\r\n\tmessageCount++;\r\n\tmessages[messageCount] = Mess(messageCount, \"Nikhil\", _content, now);\r\n\r\n\r\n\r\n\t}\r\n}",
  "sourcePath": "D:/hw/DS/MessagingApp-BlockChain/contracts/MessageApp.sol",
  "compiler": {
    "name": "solc",
    "version": "0.5.0+commit.1d4f565a.Emscripten.clang"
  },
  "schemaVersion": "3.0.1",
  "updatedAt": "2020-03-29T05:05:01.036Z",
  "devdoc": {
    "methods": {}
  },
  "userdoc": {
    "methods": {}
  }
}